{
  "_format": "hh-sol-artifact-1",
  "contractName": "mutlisignatureWallet",
  "sourceName": "contracts/MultiSignatureWallet.sol",
  "abi": [
    {
      "inputs": [
        {
          "internalType": "address[]",
          "name": "_owners",
          "type": "address[]"
        },
        {
          "internalType": "uint256",
          "name": "_numberOfConfirmationsRequired",
          "type": "uint256"
        }
      ],
      "stateMutability": "nonpayable",
      "type": "constructor"
    },
    {
      "anonymous": false,
      "inputs": [
        {
          "indexed": true,
          "internalType": "address",
          "name": "owner",
          "type": "address"
        },
        {
          "indexed": true,
          "internalType": "uint256",
          "name": "txIndex",
          "type": "uint256"
        }
      ],
      "name": "ConfirmTransaction",
      "type": "event"
    },
    {
      "anonymous": false,
      "inputs": [
        {
          "indexed": true,
          "internalType": "address",
          "name": "sender",
          "type": "address"
        },
        {
          "indexed": false,
          "internalType": "uint256",
          "name": "amount",
          "type": "uint256"
        },
        {
          "indexed": false,
          "internalType": "uint256",
          "name": "balance",
          "type": "uint256"
        }
      ],
      "name": "Deposit",
      "type": "event"
    },
    {
      "anonymous": false,
      "inputs": [
        {
          "indexed": true,
          "internalType": "address",
          "name": "owner",
          "type": "address"
        },
        {
          "indexed": true,
          "internalType": "uint256",
          "name": "txIndex",
          "type": "uint256"
        }
      ],
      "name": "ExecuteTransaction",
      "type": "event"
    },
    {
      "anonymous": false,
      "inputs": [
        {
          "indexed": true,
          "internalType": "address",
          "name": "owner",
          "type": "address"
        },
        {
          "indexed": true,
          "internalType": "uint256",
          "name": "txIndex",
          "type": "uint256"
        }
      ],
      "name": "RevokeTransaction",
      "type": "event"
    },
    {
      "anonymous": false,
      "inputs": [
        {
          "indexed": true,
          "internalType": "address",
          "name": "owner",
          "type": "address"
        },
        {
          "indexed": true,
          "internalType": "uint256",
          "name": "txIndex",
          "type": "uint256"
        },
        {
          "indexed": true,
          "internalType": "address",
          "name": "to",
          "type": "address"
        },
        {
          "indexed": false,
          "internalType": "uint256",
          "name": "value",
          "type": "uint256"
        },
        {
          "indexed": false,
          "internalType": "bytes",
          "name": "data",
          "type": "bytes"
        }
      ],
      "name": "SubmitTransaction",
      "type": "event"
    },
    {
      "inputs": [
        {
          "internalType": "uint256",
          "name": "txIndex",
          "type": "uint256"
        }
      ],
      "name": "confirmTransaction",
      "outputs": [],
      "stateMutability": "nonpayable",
      "type": "function"
    },
    {
      "inputs": [],
      "name": "depositETH",
      "outputs": [],
      "stateMutability": "payable",
      "type": "function"
    },
    {
      "inputs": [
        {
          "internalType": "uint256",
          "name": "_txIndex",
          "type": "uint256"
        }
      ],
      "name": "executeTransaction",
      "outputs": [],
      "stateMutability": "nonpayable",
      "type": "function"
    },
    {
      "inputs": [],
      "name": "getOwners",
      "outputs": [
        {
          "internalType": "address[]",
          "name": "",
          "type": "address[]"
        }
      ],
      "stateMutability": "view",
      "type": "function"
    },
    {
      "inputs": [
        {
          "internalType": "uint256",
          "name": "txIndex",
          "type": "uint256"
        }
      ],
      "name": "getTransaction",
      "outputs": [
        {
          "internalType": "address",
          "name": "to",
          "type": "address"
        },
        {
          "internalType": "uint256",
          "name": "value",
          "type": "uint256"
        },
        {
          "internalType": "bytes",
          "name": "data",
          "type": "bytes"
        },
        {
          "internalType": "bool",
          "name": "executed",
          "type": "bool"
        },
        {
          "internalType": "uint256",
          "name": "numConfirmations",
          "type": "uint256"
        }
      ],
      "stateMutability": "view",
      "type": "function"
    },
    {
      "inputs": [],
      "name": "getTransactionCount",
      "outputs": [
        {
          "internalType": "uint256",
          "name": "",
          "type": "uint256"
        }
      ],
      "stateMutability": "view",
      "type": "function"
    },
    {
      "inputs": [
        {
          "internalType": "uint256",
          "name": "",
          "type": "uint256"
        },
        {
          "internalType": "address",
          "name": "",
          "type": "address"
        }
      ],
      "name": "isConfirmed",
      "outputs": [
        {
          "internalType": "bool",
          "name": "",
          "type": "bool"
        }
      ],
      "stateMutability": "view",
      "type": "function"
    },
    {
      "inputs": [
        {
          "internalType": "address",
          "name": "",
          "type": "address"
        }
      ],
      "name": "isOwner",
      "outputs": [
        {
          "internalType": "bool",
          "name": "",
          "type": "bool"
        }
      ],
      "stateMutability": "view",
      "type": "function"
    },
    {
      "inputs": [],
      "name": "numberOfConfirmationsRequired",
      "outputs": [
        {
          "internalType": "uint256",
          "name": "",
          "type": "uint256"
        }
      ],
      "stateMutability": "view",
      "type": "function"
    },
    {
      "inputs": [
        {
          "internalType": "uint256",
          "name": "",
          "type": "uint256"
        }
      ],
      "name": "owners",
      "outputs": [
        {
          "internalType": "address",
          "name": "",
          "type": "address"
        }
      ],
      "stateMutability": "view",
      "type": "function"
    },
    {
      "inputs": [
        {
          "internalType": "uint256",
          "name": "_txIndex",
          "type": "uint256"
        }
      ],
      "name": "revokeConfirmation",
      "outputs": [],
      "stateMutability": "nonpayable",
      "type": "function"
    },
    {
      "inputs": [
        {
          "internalType": "address",
          "name": "_to",
          "type": "address"
        },
        {
          "internalType": "uint256",
          "name": "_value",
          "type": "uint256"
        },
        {
          "internalType": "bytes",
          "name": "_data",
          "type": "bytes"
        }
      ],
      "name": "submitTransaction",
      "outputs": [],
      "stateMutability": "nonpayable",
      "type": "function"
    },
    {
      "inputs": [
        {
          "internalType": "uint256",
          "name": "",
          "type": "uint256"
        }
      ],
      "name": "transactions",
      "outputs": [
        {
          "internalType": "address",
          "name": "to",
          "type": "address"
        },
        {
          "internalType": "uint256",
          "name": "value",
          "type": "uint256"
        },
        {
          "internalType": "bytes",
          "name": "data",
          "type": "bytes"
        },
        {
          "internalType": "bool",
          "name": "executed",
          "type": "bool"
        },
        {
          "internalType": "uint256",
          "name": "numConfirmations",
          "type": "uint256"
        }
      ],
      "stateMutability": "view",
      "type": "function"
    },
    {
      "stateMutability": "payable",
      "type": "receive"
    }
  ],
  "bytecode": "0x608060405234801561001057600080fd5b5060405161277d38038061277d833981810160405281019061003291906104c5565b6000825111610076576040517f08c379a000000000000000000000000000000000000000000000000000000000815260040161006d9061057e565b60405180910390fd5b600081118015610087575081518111155b6100c6576040517f08c379a00000000000000000000000000000000000000000000000000000000081526004016100bd90610610565b60405180910390fd5b60005b82518110156102b55760008382815181106100e7576100e6610630565b5b60200260200101519050600073ffffffffffffffffffffffffffffffffffffffff168173ffffffffffffffffffffffffffffffffffffffff1603610160576040517f08c379a0000000000000000000000000000000000000000000000000000000008152600401610157906106ab565b60405180910390fd5b600160008273ffffffffffffffffffffffffffffffffffffffff1673ffffffffffffffffffffffffffffffffffffffff16815260200190815260200160002060009054906101000a900460ff16156101ed576040517f08c379a00000000000000000000000000000000000000000000000000000000081526004016101e490610717565b60405180910390fd5b60018060008373ffffffffffffffffffffffffffffffffffffffff1673ffffffffffffffffffffffffffffffffffffffff16815260200190815260200160002060006101000a81548160ff0219169083151502179055506000819080600181540180825580915050600190039060005260206000200160009091909190916101000a81548173ffffffffffffffffffffffffffffffffffffffff021916908373ffffffffffffffffffffffffffffffffffffffff1602179055505080806001019150506100c9565b50806002819055505050610737565b6000604051905090565b600080fd5b600080fd5b600080fd5b6000601f19601f8301169050919050565b7f4e487b7100000000000000000000000000000000000000000000000000000000600052604160045260246000fd5b610326826102dd565b810181811067ffffffffffffffff82111715610345576103446102ee565b5b80604052505050565b60006103586102c4565b9050610364828261031d565b919050565b600067ffffffffffffffff821115610384576103836102ee565b5b602082029050602081019050919050565b600080fd5b600073ffffffffffffffffffffffffffffffffffffffff82169050919050565b60006103c58261039a565b9050919050565b6103d5816103ba565b81146103e057600080fd5b50565b6000815190506103f2816103cc565b92915050565b600061040b61040684610369565b61034e565b9050808382526020820190506020840283018581111561042e5761042d610395565b5b835b81811015610457578061044388826103e3565b845260208401935050602081019050610430565b5050509392505050565b600082601f830112610476576104756102d8565b5b81516104868482602086016103f8565b91505092915050565b6000819050919050565b6104a28161048f565b81146104ad57600080fd5b50565b6000815190506104bf81610499565b92915050565b600080604083850312156104dc576104db6102ce565b5b600083015167ffffffffffffffff8111156104fa576104f96102d3565b5b61050685828601610461565b9250506020610517858286016104b0565b9150509250929050565b600082825260208201905092915050565b7f6174206c65617374206f6e65206f776e65722069732072657175697265642000600082015250565b6000610568601f83610521565b915061057382610532565b602082019050919050565b600060208201905081810360008301526105978161055b565b9050919050565b7f696e76616c6964206e756d626572206f6620726571756972656420636f6e666960008201527f726d6174696f6e7320696e20636f6e7374727563746f72000000000000000000602082015250565b60006105fa603783610521565b91506106058261059e565b604082019050919050565b60006020820190508181036000830152610629816105ed565b9050919050565b7f4e487b7100000000000000000000000000000000000000000000000000000000600052603260045260246000fd5b7f696e76616c696420616464726573730000000000000000000000000000000000600082015250565b6000610695600f83610521565b91506106a08261065f565b602082019050919050565b600060208201905081810360008301526106c481610688565b9050919050565b7f6f776e657220616c726561647920657869737473000000000000000000000000600082015250565b6000610701601483610521565b915061070c826106cb565b602082019050919050565b60006020820190508181036000830152610730816106f4565b9050919050565b612037806107466000396000f3fe6080604052600436106100c65760003560e01c806380f59a651161007f578063c01a8c8411610059578063c01a8c84146102b5578063c6427474146102de578063ee22610b14610307578063f6326fb314610330576100cd565b806380f59a651461020c5780639ace38c214610249578063a0e67e2b1461028a576100cd565b8063025e7c27146100d257806320ea8d861461010f5780632e7700f0146101385780632f54bf6e1461016357806333ea3dc8146101a05780637580ddb1146101e1576100cd565b366100cd57005b600080fd5b3480156100de57600080fd5b506100f960048036038101906100f4919061129d565b61033a565b604051610106919061130b565b60405180910390f35b34801561011b57600080fd5b506101366004803603810190610131919061129d565b610379565b005b34801561014457600080fd5b5061014d61067e565b60405161015a9190611335565b60405180910390f35b34801561016f57600080fd5b5061018a6004803603810190610185919061137c565b61068b565b60405161019791906113c4565b60405180910390f35b3480156101ac57600080fd5b506101c760048036038101906101c2919061129d565b6106ab565b6040516101d895949392919061146f565b60405180910390f35b3480156101ed57600080fd5b506101f66107be565b6040516102039190611335565b60405180910390f35b34801561021857600080fd5b50610233600480360381019061022e91906114c9565b6107c4565b60405161024091906113c4565b60405180910390f35b34801561025557600080fd5b50610270600480360381019061026b919061129d565b6107f3565b60405161028195949392919061146f565b60405180910390f35b34801561029657600080fd5b5061029f6108ee565b6040516102ac91906115c7565b60405180910390f35b3480156102c157600080fd5b506102dc60048036038101906102d7919061129d565b61097c565b005b3480156102ea57600080fd5b506103056004803603810190610300919061171e565b610c59565b005b34801561031357600080fd5b5061032e6004803603810190610329919061129d565b610e5c565b005b610338611154565b005b6000818154811061034a57600080fd5b906000526020600020016000915054906101000a900473ffffffffffffffffffffffffffffffffffffffff1681565b600160003373ffffffffffffffffffffffffffffffffffffffff1673ffffffffffffffffffffffffffffffffffffffff16815260200190815260200160002060009054906101000a900460ff16610405576040517f08c379a00000000000000000000000000000000000000000000000000000000081526004016103fc906117ea565b60405180910390fd5b80806004805490501161044d576040517f08c379a000000000000000000000000000000000000000000000000000000000815260040161044490611856565b60405180910390fd5b816003600082815260200190815260200160002060003373ffffffffffffffffffffffffffffffffffffffff1673ffffffffffffffffffffffffffffffffffffffff16815260200190815260200160002060009054906101000a900460ff16156104ec576040517f08c379a00000000000000000000000000000000000000000000000000000000081526004016104e3906118c2565b60405180910390fd5b600060048481548110610502576105016118e2565b5b906000526020600020906005020190506003600085815260200190815260200160002060003373ffffffffffffffffffffffffffffffffffffffff1673ffffffffffffffffffffffffffffffffffffffff16815260200190815260200160002060009054906101000a900460ff166105af576040517f08c379a00000000000000000000000000000000000000000000000000000000081526004016105a69061195d565b60405180910390fd5b60018160040160008282546105c491906119ac565b9250508190555060006003600086815260200190815260200160002060003373ffffffffffffffffffffffffffffffffffffffff1673ffffffffffffffffffffffffffffffffffffffff16815260200190815260200160002060006101000a81548160ff021916908315150217905550833373ffffffffffffffffffffffffffffffffffffffff167f1ad870073a851011d852bccd8634c29c7c0ac2265ba96d2bab01285001a465a860405160405180910390a350505050565b6000600480549050905090565b60016020528060005260406000206000915054906101000a900460ff1681565b60008060606000806000600487815481106106c9576106c86118e2565b5b906000526020600020906005020190508060000160009054906101000a900473ffffffffffffffffffffffffffffffffffffffff168160010154826002018360030160009054906101000a900460ff16846004015482805461072a90611a0f565b80601f016020809104026020016040519081016040528092919081815260200182805461075690611a0f565b80156107a35780601f10610778576101008083540402835291602001916107a3565b820191906000526020600020905b81548152906001019060200180831161078657829003601f168201915b50505050509250955095509550955095505091939590929450565b60025481565b60036020528160005260406000206020528060005260406000206000915091509054906101000a900460ff1681565b6004818154811061080357600080fd5b90600052602060002090600502016000915090508060000160009054906101000a900473ffffffffffffffffffffffffffffffffffffffff169080600101549080600201805461085290611a0f565b80601f016020809104026020016040519081016040528092919081815260200182805461087e90611a0f565b80156108cb5780601f106108a0576101008083540402835291602001916108cb565b820191906000526020600020905b8154815290600101906020018083116108ae57829003601f168201915b5050505050908060030160009054906101000a900460ff16908060040154905085565b6060600080548060200260200160405190810160405280929190818152602001828054801561097257602002820191906000526020600020905b8160009054906101000a900473ffffffffffffffffffffffffffffffffffffffff1673ffffffffffffffffffffffffffffffffffffffff1681526020019060010190808311610928575b5050505050905090565b600160003373ffffffffffffffffffffffffffffffffffffffff1673ffffffffffffffffffffffffffffffffffffffff16815260200190815260200160002060009054906101000a900460ff16610a08576040517f08c379a00000000000000000000000000000000000000000000000000000000081526004016109ff906117ea565b60405180910390fd5b808060048054905011610a50576040517f08c379a0000000000000000000000000000000000000000000000000000000008152600401610a4790611856565b60405180910390fd5b8160048181548110610a6557610a646118e2565b5b906000526020600020906005020160030160009054906101000a900460ff1615610ac4576040517f08c379a0000000000000000000000000000000000000000000000000000000008152600401610abb90611a8c565b60405180910390fd5b826003600082815260200190815260200160002060003373ffffffffffffffffffffffffffffffffffffffff1673ffffffffffffffffffffffffffffffffffffffff16815260200190815260200160002060009054906101000a900460ff1615610b63576040517f08c379a0000000000000000000000000000000000000000000000000000000008152600401610b5a906118c2565b60405180910390fd5b600060048581548110610b7957610b786118e2565b5b906000526020600020906005020190506001816004016000828254610b9e9190611aac565b9250508190555060016003600087815260200190815260200160002060003373ffffffffffffffffffffffffffffffffffffffff1673ffffffffffffffffffffffffffffffffffffffff16815260200190815260200160002060006101000a81548160ff021916908315150217905550843073ffffffffffffffffffffffffffffffffffffffff167f5cbe105e36805f7820e291f799d5794ff948af2a5f664e580382defb6339004160405160405180910390a35050505050565b600160003373ffffffffffffffffffffffffffffffffffffffff1673ffffffffffffffffffffffffffffffffffffffff16815260200190815260200160002060009054906101000a900460ff16610ce5576040517f08c379a0000000000000000000000000000000000000000000000000000000008152600401610cdc906117ea565b60405180910390fd5b6000600480549050905060046040518060a001604052808673ffffffffffffffffffffffffffffffffffffffff1681526020018581526020018481526020016000151581526020016000815250908060018154018082558091505060019003906000526020600020906005020160009091909190915060008201518160000160006101000a81548173ffffffffffffffffffffffffffffffffffffffff021916908373ffffffffffffffffffffffffffffffffffffffff160217905550602082015181600101556040820151816002019081610dc19190611c8c565b5060608201518160030160006101000a81548160ff0219169083151502179055506080820151816004015550508373ffffffffffffffffffffffffffffffffffffffff16813373ffffffffffffffffffffffffffffffffffffffff167fd5a05bf70715ad82a09a756320284a1b54c9ff74cd0f8cce6219e79b563fe59d8686604051610e4e929190611d5e565b60405180910390a450505050565b600160003373ffffffffffffffffffffffffffffffffffffffff1673ffffffffffffffffffffffffffffffffffffffff16815260200190815260200160002060009054906101000a900460ff16610ee8576040517f08c379a0000000000000000000000000000000000000000000000000000000008152600401610edf906117ea565b60405180910390fd5b808060048054905011610f30576040517f08c379a0000000000000000000000000000000000000000000000000000000008152600401610f2790611856565b60405180910390fd5b8160048181548110610f4557610f446118e2565b5b906000526020600020906005020160030160009054906101000a900460ff1615610fa4576040517f08c379a0000000000000000000000000000000000000000000000000000000008152600401610f9b90611a8c565b60405180910390fd5b600060048481548110610fba57610fb96118e2565b5b9060005260206000209060050201905060025481600401541015611013576040517f08c379a000000000000000000000000000000000000000000000000000000000815260040161100a90611e00565b60405180910390fd5b60018160030160006101000a81548160ff02191690831515021790555060008160000160009054906101000a900473ffffffffffffffffffffffffffffffffffffffff1673ffffffffffffffffffffffffffffffffffffffff168260010154836002016040516110839190611eae565b60006040518083038185875af1925050503d80600081146110c0576040519150601f19603f3d011682016040523d82523d6000602084013e6110c5565b606091505b5050905080611109576040517f08c379a000000000000000000000000000000000000000000000000000000000815260040161110090611f11565b60405180910390fd5b843373ffffffffffffffffffffffffffffffffffffffff167f5445f318f4f5fcfb66592e68e0cc5822aa15664039bd5f0ffde24c5a8142b1ac60405160405180910390a35050505050565b60003073ffffffffffffffffffffffffffffffffffffffff163460405161117a90611f57565b60006040518083038185875af1925050503d80600081146111b7576040519150601f19603f3d011682016040523d82523d6000602084013e6111bc565b606091505b5050905080611200576040517f08c379a00000000000000000000000000000000000000000000000000000000081526004016111f790611fb8565b60405180910390fd5b3073ffffffffffffffffffffffffffffffffffffffff167f90890809c654f11d6e72a28fa60149770a0d11ec6c92319d6ceb2bb0a4ea1a153447604051611248929190611fd8565b60405180910390a250565b6000604051905090565b600080fd5b600080fd5b6000819050919050565b61127a81611267565b811461128557600080fd5b50565b60008135905061129781611271565b92915050565b6000602082840312156112b3576112b261125d565b5b60006112c184828501611288565b91505092915050565b600073ffffffffffffffffffffffffffffffffffffffff82169050919050565b60006112f5826112ca565b9050919050565b611305816112ea565b82525050565b600060208201905061132060008301846112fc565b92915050565b61132f81611267565b82525050565b600060208201905061134a6000830184611326565b92915050565b611359816112ea565b811461136457600080fd5b50565b60008135905061137681611350565b92915050565b6000602082840312156113925761139161125d565b5b60006113a084828501611367565b91505092915050565b60008115159050919050565b6113be816113a9565b82525050565b60006020820190506113d960008301846113b5565b92915050565b600081519050919050565b600082825260208201905092915050565b60005b838110156114195780820151818401526020810190506113fe565b60008484015250505050565b6000601f19601f8301169050919050565b6000611441826113df565b61144b81856113ea565b935061145b8185602086016113fb565b61146481611425565b840191505092915050565b600060a08201905061148460008301886112fc565b6114916020830187611326565b81810360408301526114a38186611436565b90506114b260608301856113b5565b6114bf6080830184611326565b9695505050505050565b600080604083850312156114e0576114df61125d565b5b60006114ee85828601611288565b92505060206114ff85828601611367565b9150509250929050565b600081519050919050565b600082825260208201905092915050565b6000819050602082019050919050565b61153e816112ea565b82525050565b60006115508383611535565b60208301905092915050565b6000602082019050919050565b600061157482611509565b61157e8185611514565b935061158983611525565b8060005b838110156115ba5781516115a18882611544565b97506115ac8361155c565b92505060018101905061158d565b5085935050505092915050565b600060208201905081810360008301526115e18184611569565b905092915050565b600080fd5b600080fd5b7f4e487b7100000000000000000000000000000000000000000000000000000000600052604160045260246000fd5b61162b82611425565b810181811067ffffffffffffffff8211171561164a576116496115f3565b5b80604052505050565b600061165d611253565b90506116698282611622565b919050565b600067ffffffffffffffff821115611689576116886115f3565b5b61169282611425565b9050602081019050919050565b82818337600083830152505050565b60006116c16116bc8461166e565b611653565b9050828152602081018484840111156116dd576116dc6115ee565b5b6116e884828561169f565b509392505050565b600082601f830112611705576117046115e9565b5b81356117158482602086016116ae565b91505092915050565b6000806000606084860312156117375761173661125d565b5b600061174586828701611367565b935050602061175686828701611288565b925050604084013567ffffffffffffffff81111561177757611776611262565b5b611783868287016116f0565b9150509250925092565b600082825260208201905092915050565b7f796f7520617265206e6f7420746865206f776e65720000000000000000000000600082015250565b60006117d460158361178d565b91506117df8261179e565b602082019050919050565b60006020820190508181036000830152611803816117c7565b9050919050565b7f6e6f2073756368207472616e73616374696f6e206973206c6973746564000000600082015250565b6000611840601d8361178d565b915061184b8261180a565b602082019050919050565b6000602082019050818103600083015261186f81611833565b9050919050565b7f7472616e73616374696f6e20616c726561647920636f6e6669726d6564000000600082015250565b60006118ac601d8361178d565b91506118b782611876565b602082019050919050565b600060208201905081810360008301526118db8161189f565b9050919050565b7f4e487b7100000000000000000000000000000000000000000000000000000000600052603260045260246000fd5b7f7478206973206e6f7420636f6e6669726d656400000000000000000000000000600082015250565b600061194760138361178d565b915061195282611911565b602082019050919050565b600060208201905081810360008301526119768161193a565b9050919050565b7f4e487b7100000000000000000000000000000000000000000000000000000000600052601160045260246000fd5b60006119b782611267565b91506119c283611267565b92508282039050818111156119da576119d961197d565b5b92915050565b7f4e487b7100000000000000000000000000000000000000000000000000000000600052602260045260246000fd5b60006002820490506001821680611a2757607f821691505b602082108103611a3a57611a396119e0565b5b50919050565b7f5472616e73616374696f6e20616c726561647920657865637574656400000000600082015250565b6000611a76601c8361178d565b9150611a8182611a40565b602082019050919050565b60006020820190508181036000830152611aa581611a69565b9050919050565b6000611ab782611267565b9150611ac283611267565b9250828201905080821115611ada57611ad961197d565b5b92915050565b60008190508160005260206000209050919050565b60006020601f8301049050919050565b600082821b905092915050565b600060088302611b427fffffffffffffffffffffffffffffffffffffffffffffffffffffffffffffffff82611b05565b611b4c8683611b05565b95508019841693508086168417925050509392505050565b6000819050919050565b6000611b89611b84611b7f84611267565b611b64565b611267565b9050919050565b6000819050919050565b611ba383611b6e565b611bb7611baf82611b90565b848454611b12565b825550505050565b600090565b611bcc611bbf565b611bd7818484611b9a565b505050565b5b81811015611bfb57611bf0600082611bc4565b600181019050611bdd565b5050565b601f821115611c4057611c1181611ae0565b611c1a84611af5565b81016020851015611c29578190505b611c3d611c3585611af5565b830182611bdc565b50505b505050565b600082821c905092915050565b6000611c6360001984600802611c45565b1980831691505092915050565b6000611c7c8383611c52565b9150826002028217905092915050565b611c95826113df565b67ffffffffffffffff811115611cae57611cad6115f3565b5b611cb88254611a0f565b611cc3828285611bff565b600060209050601f831160018114611cf65760008415611ce4578287015190505b611cee8582611c70565b865550611d56565b601f198416611d0486611ae0565b60005b82811015611d2c57848901518255600182019150602085019450602081019050611d07565b86831015611d495784890151611d45601f891682611c52565b8355505b6001600288020188555050505b505050505050565b6000604082019050611d736000830185611326565b8181036020830152611d858184611436565b90509392505050565b7f2043616e7420657865757465207478206e6f7420656e6f75676820636f6e666960008201527f726d6174696f6e73000000000000000000000000000000000000000000000000602082015250565b6000611dea60288361178d565b9150611df582611d8e565b604082019050919050565b60006020820190508181036000830152611e1981611ddd565b9050919050565b600081905092915050565b60008154611e3881611a0f565b611e428186611e20565b94506001821660008114611e5d5760018114611e7257611ea5565b60ff1983168652811515820286019350611ea5565b611e7b85611ae0565b60005b83811015611e9d57815481890152600182019150602081019050611e7e565b838801955050505b50505092915050565b6000611eba8284611e2b565b915081905092915050565b7f7478206661696c65640000000000000000000000000000000000000000000000600082015250565b6000611efb60098361178d565b9150611f0682611ec5565b602082019050919050565b60006020820190508181036000830152611f2a81611eee565b9050919050565b50565b6000611f41600083611e20565b9150611f4c82611f31565b600082019050919050565b6000611f6282611f34565b9150819050919050565b7f6661696c656420746f2073656e64206574686572730000000000000000000000600082015250565b6000611fa260158361178d565b9150611fad82611f6c565b602082019050919050565b60006020820190508181036000830152611fd181611f95565b9050919050565b6000604082019050611fed6000830185611326565b611ffa6020830184611326565b939250505056fea2646970667358221220724c3c3599aa621f3dac7ed3c0121ca6643b812acd35d972ccfecbac75935d1264736f6c634300081c0033",
  "linkReferences": {},
  "deployedLinkReferences": {}
}